S015000046696E616C2050726F6A6563742E737265632E
S11300000C942A000C9447000C9447000C9447006D
S11300100C9447000C9447000C9447000C94470040
S11300200C9447000C9447000C9447000C94470030
S11300300C9447000C9447000C9447000C94470020
S11300400C9447000C9447000C9447000C94470010
S11300500C94470011241FBECFE5D8E0DEBFCDBF0E
S113006010E0A0E6B0E0EEE9F5E002C005900D92E4
S1130070AC36B107D9F720E0ACE6B0E001C01D9280
S1130080AC36B207E1F70E9449000C94CD020C94FF
S113009000000E944B020E94AF000E94EE0082E327
S11300A00E945B022FEF83ED90E32150804090404B
S11300B0E1F700C000000E94EE0062E370E080E01F
S11300C090E00E944C0180E690E00E943901E7CF65
S11300D0CF93C82F40E061E081E00E94DA0140E064
S11300E062E081E00E94DA0140E063E081E00E9486
S11300F0DA018BB39C2F907F8F70892B8BBB41E0EF
S113010063E081E00E94DA018FE99FE00197F1F753
S113011000C0000040E063E081E00E94DA0120E1D9
S1130120C29FC00111249BB39F70892B8BBB41E0FC
S113013063E081E00E94DA018FE99FE00197F1F723
S113014000C0000040E063E081E00E94DA018FE13A
S11301509EE40197F1F700C00000CF91089541E0BB
S113016061E081E00E94690141E062E081E00E9477
S1130170690141E063E081E00E94690141E064E0DB
S113018080E00E94690141E065E080E00E9469012D
S113019041E066E080E00E94690141E067E080E0C0
S11301A00E94690183E30E94680082E30E94680060
S11301B088E20E94680081E00E94680082E00E9458
S11301C068008CE00E94680086E00E9468008FE36B
S11301D09FE10197F1F700C00000089581E00E94BB
S11301E068000895CF93C82F41E061E081E00E9448
S11301F0DA0140E062E081E00E94DA0140E063E07D
S113020081E00E94DA018BB39C2F907F8F70892B41
S11302108BBB41E063E081E00E94DA018FE99FE05B
S11302200197F1F700C0000040E063E081E00E9424
S1130230DA0120E1C29FC00111249BB39F70892B76
S11302408BBB41E063E081E00E94DA018FE99FE02B
S11302500197F1F700C0000040E063E081E00E94F4
S1130260DA018FE19EE40197F1F700C00000CF911D
S11302700895CF93DF93EC0109C00E94F2008FE34D
S11302809FE10197F1F700C0000021968881811158
S1130290F4CFDF91CF910895CF93DF93CDB7DEB73D
S11302A02F970FB6F894DEBF0FBECDBF2AE0AE0184
S11302B04F5F5F4F0E948C02CE0101960E9439016C
S11302C02F960FB6F894DEBF0FBECDBFDF91CF914E
S11302D00895442319F04130C9F10895813091F013
S11302E028F08230D9F0833029F108952AB381E0CF
S11302F090E002C0880F991F6A95E2F780958223E7
S11303008ABB089527B381E090E002C0880F991F4B
S11303106A95E2F78095822387BB089524B381E030
S113032090E002C0880F991F6A95E2F780958223B6
S113033084BB089521B381E090E002C0880F991F27
S11303406A95E2F78095822381BB0895813089F014
S113035028F08230C9F0833011F108952AB381E086
S113036090E002C0880F991F6A95E2F7822B8ABB3E
S1130370089527B381E090E002C0880F991F6A9521
S1130380E2F7822B87BB089524B381E090E002C09A
S1130390880F991F6A95E2F7822B84BB089521B3D5
S11303A081E090E002C0880F991F6A95E2F7822BE2
S11303B081BB0895442319F04130C9F10895813077
S11303C091F028F08230D9F0833029F108952BB3CD
S11303D081E090E002C0880F991F6A95E2F780954A
S11303E082238BBB089528B381E090E002C0880F7C
S11303F0991F6A95E2F78095822388BB089525B3F7
S113040081E090E002C0880F991F6A95E2F7809519
S1130410822385BB089522B381E090E002C0880F57
S1130420991F6A95E2F78095822382BB08958130F3
S113043089F028F08230C9F0833011F108952BB38C
S113044081E090E002C0880F991F6A95E2F7822B41
S11304508BBB089528B381E090E002C0880F991FF8
S11304606A95E2F7822B88BB089525B381E090E07A
S113047002C0880F991F6A95E2F7822B85BB089505
S113048022B381E090E002C0880F991F6A95E2F7D9
S1130490822B82BB089587B3886087BB83B788604B
S11304A083BF83B7806483BF83B7806283BF83B70E
S11304B08F7E83BF0895982F80E064E670E00E94E9
S11304C0640261506CBF089597FB072E16F40094E4
S11304D007D077FD09D00E94780207FC05D03EF4CE
S11304E0909581959F4F0895709561957F4F0895DC
S11304F0AA1BBB1B51E107C0AA1FBB1FA617B70746
S113050010F0A61BB70B881F991F5A95A9F7809561
S11305109095BC01CD010895BB272A3051F499234D
S113052042F4BDE290958095709561957F4F8F4F11
S11305309F4F0C949C02BB27FA01A62F62177105EA
S113054081059105330B30FB66F0AA27660F771FF0
S1130550881F991FAA1FA21710F0A21B6395385079
S1130560A9F7A05DAA3308F0A95DA19336F7B111EC
S1130570B1931082CA010C94BD02DC01FC01672F07
S113058071917723E1F7329704C07C916D93708366
S11105906291AE17BF07C8F30895F894FFCF29
S10F059E20252044432031324D687A00AF
S9030000FC
